:020000041000EA
:10000000002008205B0100101B0100101D010010E2
:100010001101001011010010110100101101001058
:100020001901001019010010190100101F01001022
:10003000110100101901001021010010230100100E
:100040001101001011010010110100101101001028
:100050001101001011010010110100101101001018
:100060001101001011010010110100101101001008
:1000700011010010110100101101001011010010F8
:1000800011010010110100101101001011010010E8
:1000900011010010110100101101001011010010D8
:1000A00011010010110100101101001011010010C8
:1000B00011010010110100101101001011010010B8
:1000C00011010010110100101101001011010010A8
:1000D0001101001011010010110100101101001098
:1000E0001101001011010010110100101101001088
:1000F0001101001011010010110100101101001078
:100100001101001011010010110100101101001067
:10011000EFF30580103800BE00BE00BE00BE00BE7A
:1001200000BE00BEF2EB887180590210A459021083
:100130009C01001090A31AE7D3DEFFFF42012110BB
:10014000FF01000010830200793512AB00201E4928
:10015000086006C881F3088810474FF050400068D7
:1001600008B10020F3E70DA40ECC002902D000F066
:1001700012F8F9E71549164A002000E001C1914242
:10018000FCD114498847144988471449884700BE60
:10019000FDE701C901C29A42FBD37047A45902107E
:1001A00010010020B42B0020488402100000082019
:1001B00000000820488402100010082000100820C9
:1001C000000000007047000008ED00E0B42B0020A4
:1001D0009842002065220110E10100105D2201100B
:1001E0002DE9F04106F0FCF801240DF091FD4FF0EF
:1001F0000008444E0BF0D0FF0DF0C2FD337E0BBB68
:10020000737DF07DB27D1B04317D43EA00631343AF
:10021000F26843EA01239342ECD0D6E9010707F1E3
:100220001001F3601A0204FA01F143680B42FCD199
:10023000043740F827200BF0AFFF0DF0A1FD337E0F
:10024000002BDDD00FF0AAF8D6E90832777EC31A6A
:1002500061EB02023FB3B76A9F4278EB0202C9DA50
:10026000F369C6E90801002B48D0737DF07DB27DAB
:100270001B04317D43EA00631343F26843EA012320
:10028000934286F81980B5D0D6E9010707F110012D
:10029000F3601A0204FA01F143680B42FCD10437FF
:1002A00040F82720C7E7F56A9D4277EB020CA1DAF8
:1002B000F369C6E90801002BC4BF03F1FF33F36102
:1002C000E3B1737CF07CB27C1B04317C43EA0063B5
:1002D0001343F26843EA0123934274768AD0D6E945
:1002E000010707F11001F3601A0204FA01F14368F3
:1002F0000B42FCD1043740F827209CE786F8188091
:1003000078E700BFB82B002008B50CF025FA0BF0F9
:1003100055FBFAE7002382B04161037602B07047D3
:10032000C0E90312704700BFC0687047006970479A
:100330008020704790F88C04704700BF38B50446A1
:100340004FF48062002105301EF06AFE94F88D544F
:100350006DB12A46002104F294401EF061FE2A4647
:1003600004F29C407F21BDE838401EF059BE38BDE4
:10037000704700BF10B504460C2114F057FF20460B
:1003800010BD00BF4FF47A7C70B504460D4682B0B4
:100390000CFB03F6069B01F07F400CFB03F3C1F35B
:1003A000072C40EA0C40C1F3074CCDE90021C4E919
:1003B000045240EA0C00E268C9B240EA0121E3625B
:1003C000079B8A42A662E3610DD0D4E901050122B0
:1003D00005F11003E1609A40090243681342FCD121
:1003E000043540F82510012565760EF0D7FF2576F7
:1003F000C4E9080102B070BD01231C30C0E88F3F82
:10040000704700BF0022D0E901010DF0B9BE00BF66
:100410000122D0E901010DF0B3BE00BF037E70B52B
:100420000446DBB9437DC07DA27D1B04217D43EAE8
:1004300000631343E26843EA01239A420DD0D4E9F2
:1004400001050121E36005F110041A02A14043688F
:100450000B42FCD1043540F8252070BD0EF09EFF04
:10046000D4E90832657EC31A61EB020225B3002588
:10047000A66A9E4275EB0202EFDAE369C4E908015D
:10048000002B40D0637DE17DA27D1B0443EA016324
:10049000217D1343E26843EA012393426576DCD071
:1004A000D4E901050121E36005F110041A02A1401D
:1004B00043680B42FCD1CDE7E66A9E429541CCDA17
:1004C000E369C4E90801002BC4BF03F1FF33E36112
:1004D000CBB10121637CE07CA27C1B0443EA006376
:1004E000207C1343E26843EA00239A426176B4D049
:1004F000D4E90105E3601A0205F11003994043684D
:100500000B42FCD1A6E70023237670BD037D1BB30D
:100510000369013320D0F9B10B78EBB101234268B4
:1005200030B4C568146803FA05F524EA05041460BC
:100530000C787CB1856805F1100003FA00F005F134
:10054000040C53680342FCD142F82C4011F8014FCF
:10055000002CF6D130BC7047704700BF037D13B349
:10056000036901331FD0F1B1EAB1013A01EB020C8A
:10057000012270B5D0E90236446803F1040E256803
:1005800003F1100002FA06F325EA030301392360A0
:10059000824011F8010F63681342FCD1614544F8B1
:1005A0002E00F6D170BD70471D2807D8044B53F8B4
:1005B00020301BB1DA680AB118691047704700BFD4
:1005C000C42F00202DE9F0410268DFF85CC01268FA
:1005D00082B06245054601914FEA1168C1F30747B1
:1005E000C1F30724CEB21CD1002369610376230432
:1005F00043EA0863EA683B4343EA06239A420DD084
:10060000D5E901040121EB6004F110051A02A940AB
:1006100043680B42FCD1043440F8242002B0BDE80A
:10062000F0819047E3E700BF150300102DE9F0418A
:10063000D0E90175804638690E468542144642D09D
:10064000421C69D16B1C3BD028460DF003FE7B6831
:10065000284603F12F4303F560031B0D991DC9B212
:100660000DF05CFDBB68796803EB430301EBC3034A
:10067000D3F8DC2022F07C7222F01F022A4342F4DD
:100680008012C3F8DC20D3F8DC2022F4F84242EADE
:100690008522C3F8DC20FB6803EB430301EBC303B3
:1006A000D3F8DC2022F4782242EAC532C3F8DC20F9
:1006B000D3F8CC2022F0F85242EA0562C3F8CC20ED
:1006C0003D61D8F804703B68194A1B68934228D1F1
:1006D0003B7DFBB13B6901331CD0DEB1D4B10122BB
:1006E0007868013C036806EB040CD7E9025402FA6F
:1006F00004F4711E23EA040305F1100603600435B7
:10070000B24011F8014F43681342FCD18C4540F8C8
:100710002540F6D1BDE8F0810DF09CFD6B1C93D116
:10072000CEE7224631463846BDE8F041184700BFC3
:100730005D0500102DE9F041D0E901560746286912
:100740000C46864241D0421C67D1731C3BD03046D8
:100750000DF080FD6B68304603F12F4303F5600315
:100760001B0D991DC9B20DF0D9FCD5E9011303EB9E
:10077000430301EBC303D3F8DC2022F07C7222F0A8
:100780001F02324342F48012C3F8DC20D3F8DC208D
:1007900022F4F84242EA8622C3F8DC20EB6803EB3D
:1007A000430301EBC303D3F8DC2022F4782242EAAE
:1007B000C632C3F8DC20D3F8CC2022F0F85242EA4B
:1007C0000662C3F8CC202E617D682B68184A5B68EE
:1007D000934227D12B7DF3B12B6901331BD0D4B1C8
:1007E0002378C3B101206A68E968136800FA01F14F
:1007F00023EA01031360217869B1AD6805F11003A4
:100800009840043553680342FCD142F8251014F88F
:10081000011F0029F6D1BDE8F0810DF01BFD731C0E
:1008200095D1D0E721462846BDE8F041184700BFE2
:100830000D0500109C462DE9F0431C464CEA132C94
:100840004CEA144C0CF0FF0C83B04CEA1364019397
:100850000368DFF8B4C0D3F814E0E6453ED10029C0
:100860000E4638DB1B68DFF8A49005464B4517465B
:100870003CD1802086422EDA002F2CDB2B68214AC7
:100880005B68934237D195F88C04874223DA2B6852
:100890004FEAE7081B684B4530D18023012203FB58
:1008A0000863013307F007072B441979BA40FCB1FC
:1008B0000A43D2B291421A710DD055FA88F898F8CD
:1008C00094349E4298F89C34B8BF88F894649E4251
:1008D00001DD88F89C6403B0BDE8F083231E18BFD7
:1008E0000123F44603B0BDE8F04360479847C1E7F1
:1008F00021EA0202DEE728469847C6E728469847DD
:100900000346CBE7350300108909001031030010BE
:10091000012210B504460B494368016080681968DC
:1009200002FA00F021EA00011960E06819688240CB
:10093000206921EA02021A60431C01D00DF08AFCF2
:10094000204610BD90380210012210B504460D4912
:10095000436801608068196802FA00F021EA00012A
:100960001960E06819688240206921EA02021A6071
:10097000431C01D00DF06EFC2046242114F056FCDF
:10098000204610BD903802102DE9F8430D1E3ADBC9
:100990001F460368DFF890901B6806464B451446D7
:1009A00033D1802085422EDA002C2CDB33681D4A9F
:1009B0005B6893422ED196F88C04844223DA336824
:1009C0004FEAE4081B684B4527D18022012302FB34
:1009D0000852013204F0070432441179A340B7B140
:1009E0000B43DBB28B4213710DD056FA88F898F89E
:1009F00094349D4298F89C34B8BF88F894549D4232
:100A0000C8BF88F89C54BDE8F8839847CAE721EA34
:100A10000303E7E730469847CFE73046984702465A
:100A2000D4E700BF35030010310300102DE9F04179
:100A300084B00B9DCDE90221002D73DB0768DFF840
:100A40006CC1FF680446674540F0A580C5611E463D
:100A50004FF47A700A9B00FB06F6626103FB00F01C
:100A6000C1F3072201F07F4343EA0243C1F3074287
:100A70001343E568CAB243EA0222AA42C4E90A6003
:100A800021610DD0D4E90105012105F11003E260D7
:100A90009940120243680B42FCD1043540F82520EE
:100AA000012565760EF07AFCC4E9080125764FF041
:100AB00000083D4E23689B68B34236D10EF06EFCB1
:100AC000D4E90832677EC31A61EB0202002F32D0EC
:100AD000A76A9F4278EB020221DAE3692062616231
:100AE000002B53D0637DE27D1B0443EA0263A27DA9
:100AF00084F819801343227D43EA0222E3689A4274
:100B00000DD00121A768606807F11003E2609940E9
:100B1000120243680B42FCD1043740F82720237EA1
:100B2000002BC7D104B0BDE8F08120469847237E52
:100B3000002BBFD1F6E7E56A9D429741EFDAE36902
:100B40002062002BC8BF03F1FF336162C8BFE361BD
:100B5000E3B10121637CE27C1B0443EA0263A27CD3
:100B600061761343227C43EA0222E3689A42D6D09C
:100B7000D4E9010707F11003E260994012024368CB
:100B80000B42FCD1043740F82720C8E70023237626
:100B900004B0BDE8F08101950A9D0095B847237E19
:100BA000002BBFD083E700BF1D0400108503001099
:100BB0000FB400B50B4B83B01B781BB10A4B1B78ED
:100BC000032B04D803B05DF804EB04B0704705A90B
:100BD0000498019111F022FD03B05DF804EB04B01C
:100BE000704700BF86420020874200200FB400B546
:100BF0000B4B83B01B781BB10A4B1B78022B04D81C
:100C000003B05DF804EB04B0704705A904980191A6
:100C100011F004FD03B05DF804EB04B0704700BFB1
:100C2000864200208742002008B50648FFF7DEFF15
:100C300014F08CFA0122044B1A70BDE80840FFF74B
:100C400063BB00BF80060210964200200FB400B5BF
:100C5000084B83B01B7843B1074B1B78012B04D999
:100C600005A90498019111F0D9FC03B05DF804EBDB
:100C700004B070478642002087420020F0B585B05E
:100C800017461D4644680E460EF088FB4FF0FF3CA9
:100C90006FF00042174BC01841F10001844572EB20
:100CA00001033CBF604611460290204600243A46AC
:100CB00003912B463146009414F00AF8821C0FD0A1
:100CC000431C12D0854202D1012005B0F0BD03467D
:100CD0002A4631460848FFF7B9FF002005B0F0BDAD
:100CE00031460648FFF7B2FFF7E731460448FFF701
:100CF000ADFFF2E740420F003007021098060210E5
:100D0000DC0602102DE9F04387B00D461F46D0F8EF
:100D100004908DF8172080460E9E0EF03FFB4FF09A
:100D2000FF3C6FF000423C4BC01841F1000184458C
:100D300072EB01033CBF114660460123CDE902017D
:100D40000DF1170248462946009313F0C1FF0446EF
:100D5000A01C2AD0611C42D0012C2CD1D8F8044010
:100D60000EF01CFB4FF0FF3C6FF000422A4BC01806
:100D700041F10001844572EB01033CBF604611461E
:100D80000290204600243A460391009433462946B7
:100D900013F0BCFF821C04462FD0431C34D0864283
:100DA00011D1012007B0BDE8F08329469DF8172036
:100DB0001A48FFF74BFF234629469DF8172018488D
:100DC000FFF744FFCAE7334629469DF81720154828
:100DD0000094FFF73BFF002007B0BDE8F0832946F1
:100DE0009DF817201048FFF731FF234629469DF84C
:100DF00017200B48FFF72AFFB0E729469DF8172078
:100E00000A48FFF723FFE6E729469DF81720084820
:100E1000FFF71CFFDFE700BF40420F00A0070210F2
:100E2000BC080210780A0210180802105C090210AF
:100E3000D4090210F0B585B017461D4644680E4629
:100E40000EF0ACFA4FF0FF3C6FF00042174BC018A9
:100E500041F10001844572EB01033CBF604611463D
:100E60000290204600243A4603912B4631460094D6
:100E700013F04CFF821C0FD0431C12D0854202D1CC
:100E8000012005B0F0BD03462A4631460848FFF769
:100E9000DDFE002005B0F0BD31460648FFF7D6FE66
:100EA000F7E731460448FFF7D1FEF2E740420F0072
:100EB000CC0B0210180B02105C0B0210037D002BF0
:100EC0005DD02DE9F04F03690446013385B052D05F
:100ED000884600294FD09146002A4CD001218368D2
:100EE000626803F11800936881400B439360936834
:100EF0001942FCD001234FF0000BE06811688340D9
:100F00000B43136094F82030A769039308F1FF3373
:100F100002934FEAE77A0EF041FA05460E4608E0E2
:100F20000EF03CFA401B61EB060187427AEB0101AF
:100F300027DB6168E068CB68C2000432D3401B073E
:100F4000EED001EB800191F82330029ADBB202F877
:100F5000013F0292039A0BF1010B9A4230D0D9451E
:100F6000D9D101226168E0680B68824023EA02035C
:100F7000CB460B6018E0002005B0BDE8F08F0020E4
:100F80007047CDF800903946E36862680D48FFF776
:100F90005DFE0122E36861689A400B6823EA020360
:100FA0000B60BBF1000FE6D00BF1FF3018F800200A
:100FB00094F820309A42DED1002308F80030DBE7B5
:100FC000D946CEE7380C02102DE9F04FD0E90145A3
:100FD000804620690E468542174685B042D0411CA6
:100FE00050D16A1C3BD028460DF034F96168284680
:100FF00001F12F4101F56001090D0631C9B20DF073
:101000008DF8A368616803EB430301EBC303D3F8D6
:10101000DC2022F07C7222F01F022A4342F480126C
:10102000C3F8DC20D3F8DC2022F4F84242EA85221F
:10103000C3F8DC20E36803EB430301EBC303D3F8FD
:10104000DC2022F4782242EAC532C3F8DC20D3F84F
:10105000CC2022F0F85242EA0562C3F8CC20256188
:10106000D8F804402368434A9B6893420FD1237DFC
:1010700023B12369013301D006B17FB9002005B047
:10108000BDE8F08F0DF0E6F86A1CACD1E7E73A4610
:101090003146204605B0BDE8F04F18470121A3684E
:1010A000626803F11800936881400B439360936872
:1010B0001942FCD001234FF0000BE0681168834017
:1010C0000B43136094F82030D4F818900393731EE8
:1010D00002934FEAE97A0EF061F90546884608E086
:1010E0000EF05CF9401B61EB080181457AEB0101D0
:1010F00021DB6168E068CB68C2000432D3401B0783
:10110000EED001EB800191F82330029ADBB202F8B5
:10111000013F0292039A0BF1010B9A4227D05F45DF
:10112000D9D101226168E0680B68824023EA02039A
:10113000BB460B6011E0E368626849460E480097C1
:10114000FFF784FD0122E36861689A400B6823EA97
:1011500002030B60BBF1000F90D00BF1FF30325C4B
:1011600094F820309A4289D10023335487E75F46B0
:10117000D7E700BFBD0E0010380C02102DE9F04378
:101180000446104685B004AF3A6A0D4602F10801E4
:1011900021F00701ADEB010D8DF8100019460DF19E
:1011A0001100561C1EF048FA2268254BD2F8009018
:1011B0000DF11008994530D164680EF0EFF84FF04A
:1011C000FF3C6FF000421F4BC31841F100019C45EA
:1011D00072EB01003CBF11466346204600244246A4
:1011E0000293039133462946009413F071FD821C4B
:1011F0001CD0431C1FD0B04204D101200437BD468F
:10120000BDE8F0830346324629460F48FFF71EFD2E
:1012100000200437BD46BDE8F083334642462946E8
:101220002046C8470437BD46BDE8F0832946074835
:10123000FFF70CFDECE729460548FFF707FDE7E758
:101240007D0C001040420F0030070210980602107B
:10125000DC0602100FB400B50A4B83B01B7813B143
:10126000094B1B7823B903B05DF804EB04B0704759
:1012700005A90498019111F0D1F903B05DF804EBD0
:1012800004B07047864200208742002030B54FF4FA
:101290000144D0F8880487B00268244BADF81440AC
:1012A00014688DF816109C422DD145680EF076F822
:1012B0004FF0FF346FF000421D4BC31841F10001A5
:1012C0009C4272EB01003CBF234611460024CDE94D
:1012D000023105AA284603233C21009413F0F8FCB0
:1012E000821C18D0431C1BD0032801D107B030BD8D
:1012F000034603223C210F48FFF7A8FC0E48FFF7E6
:10130000A9FF07B030BD03233C2105AAA047002850
:10131000F4D007B030BD3C210848FFF797FCEDE75B
:101320003C210748FFF792FCE8E700BF7D0C001066
:1013300040420F0030070210940C02109806021071
:10134000DC060210F0B54668514B32680D46D46891
:1013500087B09C427CD1032374688DF813300EF063
:101360001DF84FF0FF3C6FF000424A4BC01841F1AE
:101370000001844572EB01033CBF11466046012326
:1013800002900391204606210DF11302009313F001
:101390009FFC0446A01C3ED0611C63D0012C40D1B0
:1013A00074680DF0FBFF4FF0FF366FF00042394BD1
:1013B000C31841F100019E4272EB01003CBF11468F
:1013C00033462046002405AA029303910094022389
:1013D000062113F09BFC821C04464AD0431C4FD0CC
:1013E000022826D19DF815309DF814009B0843EA89
:1013F00080100EF0C5FB0022274B0EF003FB0022ED
:101400004FF07C530EF0FEFA02460B460120C5E970
:10141000002307B0F0BD06219DF813201F48FFF7F9
:1014200015FC234606219DF813201D48FFF70EFCEE
:10143000B6E7022306219DF813201A480094FFF70F
:1014400005FC06211848FFF705FF002007B0F0BD96
:10145000022703223046062105AB0097A04700284B
:10146000C0D1EEE706219DF813201048FFF7EEFBF0
:10147000D7E706219DF813200D48FFF7E7FBE0E7CB
:1014800006219DF813200B48FFF7E0FBD9E700BFCA
:10149000050D001040420F0000807640A0070210AA
:1014A000BC080210780A0210B80C021018080210CA
:1014B0005C090210D4090210F0B54668564B326838
:1014C0000D46D46887B09C4240F082800323746844
:1014D0008DF813300DF062FF4FF0FF3C6FF00042CB
:1014E0004E4BC01841F10001844572EB01033CBF33
:1014F00011466046012302900391204606210DF11A
:101500001302009313F0E4FB0446A01C43D0611CBB
:1015100068D0012C45D174680DF040FF4FF0FF36C4
:101520006FF000423D4BC31841F100019E4272EB47
:1015300001003CBF114633462046002405AA029311
:10154000039100940223062113F0E0FB821C044661
:101550004FD0431C54D002282BD19DF815309DF854
:1015600014009B0843EA80100EF00AFB00222C4B6B
:101570000EF048FA26A3D3E900230EF043FA002226
:101580004FF07C530EF03EFA02460B460120C5E9AF
:10159000002307B0F0BD06219DF813202148FFF776
:1015A00055FB234606219DF813201F48FFF74EFBED
:1015B000B1E7022306219DF813201C480094FFF791
:1015C00045FB06211A48FFF745FE002007B0F0BD95
:1015D000022703223046062105AB0097A0470028CA
:1015E000BBD1EEE706219DF813201248FFF72EFB32
:1015F000D7E706219DF813200F48FFF727FBE0E708
:1016000006219DF813200D48FFF720FBD9E700BF06
:10161000182D4454FB210940050D001040420F00D5
:1016200000001040A0070210BC080210780A021047
:10163000B80C0210180802105C090210D40902103C
:101640002DE9F04F90F88DB487B0BBF1000F00F09A
:10165000D48007460026DFF8BCA1DFF8BC9100F279
:10166000934803E00136F3B25B457ED218F8015F80
:1016700098F80840A542F5D84FF404512222F3B25D
:10168000D7F888048DF813408DF812508DF8153076
:101690008DF81630ADF810108DF814200368641B17
:1016A000D3F800B0D34540F08680D0F804B00DF0F8
:1016B00075FE4FF0FF326FF0004310EB090041F16F
:1016C0000001824273EB010C3CBF104619464FF0FB
:1016D000000C029004AA0391584607233C21CDF840
:1016E00000C013F0F5FA821C73D0431C7BD007288E
:1016F0004DD1611C4FEAC61307D0691D1944621C05
:10170000394407F206401DF00DFCD7F8880407F2B3
:10171000054B036802341D68554553D145680DF0EB
:101720003DFE4FF0FF3C6FF0004210EB090341F12A
:1017300000019C4572EB01003CBF11466346284600
:1017400000255A460293039123463C21009513F04D
:10175000BFFA821C42D0431C4AD0A04221D197F844
:101760008DB40136F3B25B4580D3BBF1000F44D09A
:101770005A46802107F294401DF052FC5A4600213F
:1017800007F29C4007B0BDE8F04F1DF049BC03468E
:1017900007223C211A48FFF759FA1A48FFF75AFD69
:1017A000A7E7034622463C211548FFF74FFA1648A3
:1017B000FFF750FDD3E707233C2104AAD8470028B0
:1017C00097D1EAE723465A463C21A8470028C6D1CC
:1017D000EDE73C210D48FFF739FADEE73C210B48E5
:1017E000FFF734FAE3E73C210948FFF72FFAD4E783
:1017F0003C210748FFF72AFAD9E707B0BDE8F08F88
:1018000030070210FC0C0210280D0210980602107E
:10181000DC0602107D0C001040420F002DE9F04361
:10182000D0F804801646D8F800206E4BD7680446DE
:101830009F420D468BB040F0B5801E23D8F804704F
:101840008DF817300DF0AAFD4FF0FF3C6FF000420D
:10185000654BC01841F10001844572EB01033CBFA8
:10186000114660460123CDE902010DF11702384609
:101870006A21009313F02CFA0746B81C75D0791C26
:1018800000F09A80012F76D1D8F804700DF086FD13
:101890004FF0FF3C6FF00042534BC01841F1000184
:1018A000844572EB01033CBF114660460023CDE93D
:1018B000020106AA384600936A21102313F026FA83
:1018C000821C07467FD0431C00F0848010285AD128
:1018D000A36923B1002204F11C03C3E88F2FD4E9CC
:1018E0000489BDF91C000EF04BF942464B460EF040
:1018F00089F8C6E90001BDF91E000EF041F9424623
:101900004B460EF07FF8C6E90201BDF920000EF04B
:1019100037F942464B460EF075F8C6E90401D4E9A2
:101920000267BDF922000EF02BF932463B460EF05D
:1019300069F8C5E90001BDF924000EF021F932462D
:101940003B460EF05FF8C5E90201BDF926000EF036
:1019500017F932463B460EF055F802460B46012079
:10196000C5E904230BB0BDE8F0836A219DF8172078
:101970001E48FFF76BF93B466A219DF817201C486B
:10198000FFF764F980E710236A219DF817201948B2
:101990000097FFF75BF91848FFF75CFC00200BB0DD
:1019A000BDE8F0831023404600931E226A2106AB57
:1019B000B84700288CD1EEE76A219DF817200F4820
:1019C000FFF744F9D7E76A219DF817200C48FFF785
:1019D0003DF9E0E76A219DF817200A48FFF736F93C
:1019E000D9E700BF050D001040420F00A00702100C
:1019F000BC080210780A02104C0D021018080210E0
:101A00005C090210D409021083693BB11C30D0E894
:101A10008F0FC0B2003818BF0120704770B54568FD
:101A2000494A296886B0CC688DF8163094426BD14B
:101A30001E236C688DF817300DF0B0FC4FF0FF3CA2
:101A40006FF00042414BC31841F100019C4572EB1D
:101A500001003CBF634611460293012320460391D7
:101A60000DF117026A21009313F032F90446A01C0D
:101A70003CD0611C53D0012C3ED16D680DF08EFC22
:101A80004FF0FF346FF00042304BC31841F10001BA
:101A90009C4272EB01003CBF234611460024CDE975
:101AA00002310DF116020094284601236A2113F039
:101AB0002DF9821C044639D0431C3ED0012807D1A1
:101AC0009DF8160010F0030018BF012006B070BD8D
:101AD00001236A219DF817201D480094FFF7B6F8EE
:101AE0001C48FFF7B7FB002006B070BD6A219DF8C7
:101AF00017201948FFF7AAF823466A219DF81720F6
:101B00001648FFF7A3F8B8E701261E226A212846E7
:101B10000DF116030096A0470028D1D1E0E76A2115
:101B20009DF817200E48FFF791F8E5E76A219DF828
:101B300017200C48FFF78AF8D2E76A219DF8172092
:101B40000948FFF783F8CBE7050D001040420F006E
:101B5000780A0210780D0210A0070210BC080210CB
:101B6000180802105C090210D40902104FF42E422A
:101B700030B5D0F8880487B0ADF814200268224B45
:101B800014689C422ED145680DF008FC4FF0FF34DC
:101B90006FF000421D4BC31841F100019C4272EBF3
:101BA00001003CBF234611460024CDE9023105AABD
:101BB000284602233C21009413F08AF8821C19D095
:101BC000431C1CD0022801D107B030BD03460222BD
:101BD0003C210F48FFF73AF8AE210E48FFF73AFBD9
:101BE00007B030BD02233C2105AAA0470028F3D04E
:101BF00007B030BD3C210848FFF728F8ECE73C214E
:101C00000648FFF723F8E7E77D0C001040420F007D
:101C100030070210A80D021098060210DC06021010
:101C20004FF42F4230B5D0F8880487B0ADF81420B7
:101C30000268224B14689C422ED145680DF0AEFB21
:101C40004FF0FF346FF000421D4BC31841F100010B
:101C50009C4272EB01003CBF234611460024CDE9B3
:101C6000023105AA284602233C21009413F030F8E3
:101C7000821C19D0431C1CD0022801D107B030BDF2
:101C8000034602223C210F48FEF7E0FFAF210E4839
:101C9000FFF7E0FA07B030BD02233C2105AAA047B8
:101CA0000028F3D007B030BD3C210848FEF7CEFF36
:101CB000ECE73C210648FEF7C9FFE7E77D0C001082
:101CC00040420F0030070210A80D021098060210C3
:101CD000DC0602102DE9F04F81461C463F4F83B0D1
:101CE0000846C9E900710C9E114690469DF8345093
:101CF00012F0C8FF032120460CF010FA03213046F1
:101D00000CF00CFA002D51D14FF0000343EC44408D
:101D100043EC446043EC404043EC40604FF0504B98
:101D20004FF0010A052120460CF0F8F90521304654
:101D30000CF0F4F9DBF804700AFA06F52F4023D111
:101D4000274B8DF80770B3FBF8F809278DF806A02C
:101D5000DBF8041015EA010A11D19DF8063043ECB6
:101D60004440404651460DF0C9F99DF8073043EC18
:101D70004440404651460DF0C1F9013FE8D14FF0D3
:101D800050435B681D421CD14FF0000343EC4440BC
:101D900043EC4460032120460CF0C0F93046032197
:101DA0000CF0BCF9484603B0BDE8F08F2046002295
:101DB00001210CF0D1F90022012130460CF0CCF9C0
:101DC000A2E74FF0010343EC4460002140460DF0D0
:101DD00095F94FF0000343EC4460D5E778380210E2
:101DE00020A10700000000002DE9F04F8DB004AFE6
:101DF00097F848407B603C6000247C760446A3460C
:101E0000C7E902210DF0CAFADBF80440DFF8249399
:101E100023680646D3F80C808A46C845BE4D40F07C
:101E2000AB810F233B77D4F804800DF0B7FA4FF065
:101E3000FF326FF00043401941F10001824273EB21
:101E4000010C3CBF104619460123CDE9020107F100
:101E50001C0240466A21009312F03AFF10F1020F73
:101E6000804600F03881B0F1FF3F00F09D810128ED
:101E700040F0368164680DF091FA4FF0FF326FF058
:101E80000043401941F10001824273EB010C3CBF59
:101E9000104619460023CDE9020100936A2120462D
:101EA000012307F1190212F031FF811C00F01782A3
:101EB000421C00F02082012840F03E810026BE76C0
:101EC000FE760DF06BFA05468A46C7F814B00DF0A1
:101ED00065FA924B401B61EB0A01834276EB0101EC
:101EE000C0F04E837B69D3F804B0DBF80030D3F840
:101EF0000C80C84540F05E8110233B77DBF80480FE
:101F00000DF04CFA4FF0FF326FF00043824C001995
:101F100041F10001824273EB010C3CBF10461946AF
:101F20000123CDE9020107F11C0240466A2100931A
:101F300012F0CEFE10F1020F804600F0D880B0F112
:101F4000FF3F00F04481012840F0D680DBF8048098
:101F50000DF024FA4FF0FF326FF000436E4C001981
:101F600041F10001824273EB010C3CBF104619465F
:101F700007F11A043C61CDE90201009601234046B5
:101F80006A213A6912F0C2FE831C00F02681441CCB
:101F900000F02981012840F0B6807B69D3F80480E5
:101FA000D8F80030D3F80CB0CB4540F02281112393
:101FB0003B77D8F804B00DF0F1F94FF0FF326FF035
:101FC0000043554C001941F10001824273EB010CB2
:101FD0003CBF104619460123CDE9020107F11C025E
:101FE00058466A21009312F073FE10F1020F8346E7
:101FF00000F0CE80B0F1FF3F00F07781012840F083
:10200000CC80D8F804B00DF0C9F94FF0FF326FF072
:102010000043414C07F11B08001941F100018242C5
:1020200073EB010C3CBF104619460023CDE90201B9
:1020300000936A2158460123424612F067FE811C34
:1020400000F0CB80421C00F0CE8001285BD1BB7E2B
:10205000FA7E13430F2B40F2DE807B69304A5868CA
:102060000368D3F80880904540F04B814FF48972A3
:10207000BA83D3F800B02B4B9B4540F05981D0F880
:1020800004B00DF08BF94FF0FF326FF00043DFF832
:1020900088C010EB0C0041F10001824273EB010C8F
:1020A0003CBF104619460023CDE902010093584673
:1020B00002236A2107F11C0212F00AFE831C00F0C1
:1020C0004F82441C00F05482022840F02781642093
:1020D0000DF064F8FBE66A213A7F1348FEF7B6FD7F
:1020E00043466A2111483A7FFEF7B0FDC2E66A21F5
:1020F0003A7F0D48FEF7AAFD43466A213A7F0B4816
:10210000FEF7A4FD22E73A7F012300906A210848E8
:10211000FEF79CFDDBE600BF40420F001FA1070059
:102120007D1100107D0C0010A0070210BC080210E9
:10213000780A0210050D00103A7F012300906A21F1
:102140009748FEF783FD9748FFF784F80DF026F9CE
:102150000023954A801B61EB0A0182428B41C0F04B
:10216000F0800A200DF01AF8DBF804402368D3F859
:102170000C80C8453FF455AE0123204600930F2242
:102180006A2107F11903C04700287FF497AEDAE708
:102190006A213A7F8548FEF759FD5B466A213A7FFE
:1021A0008348FEF753FD2CE76A213A7F8148FEF70A
:1021B0004DFD95E70123009307F11A0358461022BD
:1021C0006A213B61C04700287FF4E7AE7FE66A21C1
:1021D0003A7F7848FEF73AFD8EE76A213A7F7648E3
:1021E000FEF734FD73E66A213A7F7448FEF72EFD50
:1021F0006DE60123404607F11B0800931122434678
:102200006A21D84700283FF462AEBB7EFA7E1343B2
:102210000F2B3FF622AF7C690DF0C0F806468B46C7
:10222000674D7C617B695C682368D3F80CA0CA4564
:1022300040F0D2800F233B77D4F804A00DF0AEF825
:102240004FF0FF326FF00043401941F1000182422C
:1022500073EB010C3CBF104619460123CDE9020186
:1022600007F11C0250466A21009312F031FD10F173
:10227000020F82466ED0B0F1FF3F00F05F8101286F
:102280006DD164680DF08AF84FF0FF326FF00043B3
:10229000401941F10001824273EB010C3CBF104632
:1022A00019460023CDE9020100936A21204601234B
:1022B00007F1190212F02AFD811C00F04581421C31
:1022C00000F04881012851D1797E7B696B299A46BB
:1022D00000F092806B223B48FEF7BCFF35E06A219C
:1022E0003A7F3548FEF7B2FC2DE76A213A7F314844
:1022F000FEF7ACFC51E76A213A7F3048FEF7A6FCB6
:1023000021E70123122200936A212F4BC0470028A6
:102310007FF4DDAE2D48FEF79DFFD8E6034602228E
:102320006A212B48FEF792FC2848FEF793FFCEE681
:1023300002236A2107F11C02D84700287FF4C7AEA8
:10234000E8E764212348FEF785FF00202437BD46D7
:10235000BDE8F08F6A213A7F1448FEF777FC5346B8
:102360006A2113483A7FFEF771FC8AE73A7F01231E
:1023700000906A210A48FEF769FC0A48FEF76AFFE6
:102380000DF00CF80023084A801B61EB0B01824220
:102390008B41C0F0F9800A200CF000FF42E700BF3B
:1023A000780A0210240E02109F860100A007021076
:1023B000BC080210180802105C090210D4090210AF
:1023C00040420F00E00E0210063A0210500E0210BA
:1023D00030070210D00D02100123204600930F2277
:1023E0006A2107F11903D0470028C6D0797E7B699E
:1023F0006B299A467FF46EAF0023DAF80440FB762F
:102400002368DD684D4540F02F8310233B776568D6
:102410000CF0C4FF4FF0FF366FF00042B14BC01814
:1024200041F10003864272EB03013CBF1346304684
:10243000CDE902030123284600936A2107F11C021B
:1024400012F046FC831C054600F04083461C00F059
:102450008E82012840F0908264680CF09FFF4FF05C
:10246000FF356FF000429F4BC01841F100038542D9
:1024700072EB03013CBF13462846CDE9020300235B
:1024800020460093424601236A2112F03FFC851C3E
:10249000044600F06683601C00F06983012C40F064
:1024A000F482FB7EFA6823F00C031343DAF804008D
:1024B000FB7602688C4C9568A54240F0FA827B77E7
:1024C00010233B771568894B9D4240F02583456872
:1024D0000CF064FF4FF0FF3C6FF00042814BC018DE
:1024E00041F10003844572EB03013CBF1346604693
:1024F000CDE9020300236A2100932846022307F155
:102500001C0212F0E5FB811C00F07783421C00F0F6
:102510007983022840F0F982FA680C2A39D8DFE87A
:1025200012F044023800380038003E02380038000B
:102530003800380238003800380032026A213A7F09
:102540006B48FEF783FB0AE76A213A7F6948FEF78A
:102550007DFB12E76A213A7F6748FEF777FB0CE7BD
:102560006A216648FEF772FB6548FEF773FEAEE52A
:102570006A216448FEF76AFB6148FEF76BFEA6E538
:102580006148FEF767FEE0E664216048FEF762FE00
:10259000DBE600225E4B5F48CAE90223FEF75AFEE3
:1025A0000023DAF80450FB762B68DE684E4540F0D5
:1025B000A18211233B776E680CF0F0FE4FF0FF3CD8
:1025C0006FF00042474BC01841F10003844572EBA5
:1025D00003013CBF13466046CDE9020301233046A8
:1025E00000936A2107F11C0212F072FB831C06465D
:1025F00000F02E82701C00F0A282012E40F02D828D
:102600006D680CF0CBFE4FF0FF366FF00042354B9B
:10261000C01841F10003864272EB03013CBF134630
:102620003046CDE90203002328466A210093424642
:10263000012312F06BFB811C054600F0CB82421C8B
:1026400000F0FF82012840F04782FB7EBA6823F049
:102650000F031343DAF80400FB7602689568A5427D
:1026600040F060827B7711233B7715681F4B9D42BA
:1026700040F0A48245680CF091FE4FF0FF3C6FF0F3
:102680000042184BC01841F10003844572EB03016E
:102690003CBF13466046CDE9020300232846009361
:1026A0006A21022307F11C0212F012FB831C00F0C6
:1026B000EF82451C00F0F782022840F07882BA6869
:1026C0000C2A29D8DFE812F0BE01B801B2012800B7
:1026D00083012800280028007D0128002800280008
:1026E000770100BF40420F007D1100107D0C0010EB
:1026F000180802105C090210D40902109806021092
:10270000500E0210DC060210B0100210800E0210F3
:102710000000F03F8C0F021000220023BE48CAE9DF
:102720000423FEF797FD0023DAF80450BB762B68EC
:10273000DE684E4540F0218210233B776E680CF036
:102740002DFE4FF0FF3C6FF00042B44BC01841F13A
:102750000003844572EB03013CBF13466046CDE99C
:102760000203012330466A2107F11C02009312F094
:10277000AFFA811C064600F09081421C00F02482D2
:10278000012840F08F816D680CF008FE4FF0FF3695
:102790006FF00042A14BC01841F10003864272EB7A
:1027A00003013CBF13463046CDE9020300230093EA
:1027B000284601236A213A6912F0A8FA831C0546CB
:1027C00000F06082461C00F06882012840F0E7813A
:1027D000BB7E7A6803F00F031A43DAF80400BA7676
:1027E000134602689568A54240F0FA817B77102372
:1027F0003B7716688A4B9E4240F00F8246680CF089
:10280000CDFD4FF0FF3C6FF00042844BC01841F10A
:102810000003844572EB03013CBF13466046CDE9DB
:1028200002030023304600936A21022307F11C02B1
:1028300012F04EFA0346981C00F05C82591C00F01E
:102840005482022B40F0E3810023DAF80450FB7637
:102850002B68DE684E4540F0E68111233B776E68B9
:102860000CF09CFD4FF0FF3C6FF000426B4BC0182A
:1028700041F10003844572EB03013CBF13466046FF
:10288000CDE902030123304607F11C026A210093BF
:1028900012F01EFA821C064600F05781431C00F01D
:1028A000EB81012840F056816D680CF077FD4FF008
:1028B000FF366FF00042594BC01841F100038642C9
:1028C00072EB03013CBF13463046CDE902030023FF
:1028D00028460093424601236A2112F017FA861C0B
:1028E000054600F0FC81681C00F0F381012D40F0EA
:1028F000AE81FB7E3A6803F00F031A43DAF8040056
:10290000FA76134602689568A54240F0A881112125
:102910007B773977424B15689D4240F0CF814668FE
:102920000CF03CFD4FF0FF356FF000423B4BC318FD
:1029300041F100019D4272EB01003CBF2B46114664
:1029400000250293039102236A21304607F11C02FD
:10295000009512F0BDF9811C034600F0B581421CC0
:1029600000F0CD81022840F0A3810120EEE46A212D
:102970003A7F2C48FEF76AF92B466A213A7F2A48AB
:10298000FEF764F968E516A3D3E90023CAE9022338
:1029900006E615A3D3E90023CAE9022300E614A33F
:1029A000D3E90023CAE90223FAE513A3D3E90023FC
:1029B000CAE90223F4E512A3D3E90023CAE90423F8
:1029C000B1E611A3D3E90023CAE90423ABE610A3BF
:1029D000D3E90023CAE90423A5E600BFAFF30080D2
:1029E000D5CC5A0A48FB2F3FD5CC5A0A48FB1F3F8B
:1029F000D5CC5A0A48FB3F3FD5CC5A0A48FB0F3F7B
:102A00005F91331C4F04543F5F91331C4F04443F8C
:102A10005F91331C4F04343F3C10021040420F00C2
:102A20007D0C001018080210BC080210C6A3D3E9E0
:102A30000023CAE9042376E6C5A3D3E90023CAE943
:102A4000042370E6C4A3D3E90023CAE904236AE699
:102A50006A213A7FAC48FEF7F9F833466A213A7F9B
:102A6000AA48FEF7F3F8CBE5012320460093102295
:102A700043466A21A84700287FF413ADA448FEF717
:102A8000E9FBA448FEF7E6FB5FE43A7F01236A21F5
:102A9000A1480094FEF7DAF8F0E76A213A7F9A48F5
:102AA000FEF7D4F833466A213A7F9848FEF7CEF80D
:102AB00069E60123102200936A214346A8470028B3
:102AC0007FF42AAD9548FEF7C5FBDAE76A213A7F25
:102AD0008D48FEF7BBF84FE73A7F01236A218E4805
:102AE0000095FEF7B3F88E48FEF7B4FB8D48FEF76D
:102AF000B1FB2AE4012328460093112243466A21B0
:102B0000B04700287FF4A1ADEDE7034602226A2119
:102B10008548FEF79BF8D5E702236A2107F11C02DE
:102B2000A847CCE70123112200936A214346A84716
:102B300000287FF4C4AD7D48FEF78CFBD6E76A2100
:102B40003A7F7B48FEF782F887E76A213A7F6E4832
:102B5000FEF77CF833466A213A7F6C48FEF776F838
:102B6000A2E66A213A7F7348FEF770F886E76A2189
:102B70003A7F7148FEF76AF880E701230093284600
:102B800010226A213B69B04700287FF421AE6048DB
:102B9000FEF760FB6948FEF75DFBFFF7D6BB3A7FA7
:102BA00001236A215C480095FEF750F8EFE70346E1
:102BB00002226A215C48FEF749F8BCE702236A2139
:102BC00007F11C02A847B3E76A213A7F5848FEF78D
:102BD0003DF867E76A213A7F5648FEF737F882E703
:102BE00001223B696A2100921022A84700287FF445
:102BF0002BAE4A48FEF72EFBCCE76A215048FEF781
:102C000025F85FE76A214F48FEF720F85AE70222CD
:102C10006A214548FEF71AF8EBE702236A2107F11B
:102C20001C02B047E2E701232846009311224346E5
:102C30006A21B04700287FF45CAE3948FEF70AFBF2
:102C4000A8E76A213A7F3C48FEF700F84BE73A7F55
:102C500001236A2130480095FDF7F8FFEDE70124D4
:102C6000434611226A210094A84700287FF47DAED4
:102C70002E48FEF7EFFA8DE76A213A7F2C48FDF7E0
:102C8000E5FF67E76A213A7F2A48FDF7DFFF7EE725
:102C90006A212B48FDF7DAFF4DE76A213A7F264883
:102CA000FDF7D4FF73E76A212648FDF7CFFF42E71F
:102CB00002226A211C48FDF7C9FFD9E702236A21D5
:102CC00007F11C02A847D0E76A211D48FDF7BEFFA7
:102CD000CEE76A213A7F1848FDF7B8FFADE76A21D1
:102CE0003A7F1448FDF7B2FFA7E76A211548FDF7C0
:102CF000ADFF7EE76A211248FDF7A8FF79E76A2158
:102D00001048FDF7A3FFB3E7A0070210BC080210AC
:102D1000300F0210B40F0210780A02105C0F02107C
:102D2000E40F0210601002103007021010100210A1
:102D3000180802105C090210D40902108C1002104D
:102D400098060210DC0602105F91331C4F04143FFA
:102D50005F91331C4F04643F5F91331C4F04243F49
:102D600070B50446164682B01F2923611D464FEAFE
:102D700051038ABF03F0030303F0070308339DF8F0
:102D800018C0A36001F00103C4E90012E360084623
:102D900084F818C004210BF0C1F9052130460BF06E
:102DA000BDF94FF0010343EC4460052025610CF0B0
:102DB000A7FB07EE905A06EE900AF8EE677AF8EE57
:102DC000666A9FED296A86EEA77AB4EEC67AF1EEBE
:102DD00010FA2AD8FCEEC77A17EE902A102190B28A
:102DE000A368626103EB83039B0003F1804202F559
:102DF0002822516061681061227E42EC4010E26836
:102E00002046003A18BF012203F180430C3303F53A
:102E100028215242096882F47F4282F0FF0203F5C2
:102E200029230A401A6002B070BDC7EE067AFCEE94
:102E3000E76ACDED016A9DF80430B3EE007A06EE44
:102E4000903AF8EEE66A77EEE67A67EE877AFCEE7D
:102E5000E77ACDED017A4FF6FF709DF80410024637
:102E600041EA0311BCE700BF00FF7F4710B51B20FC
:102E70000BF0CCF94FF000041B2344EC44301A2033
:102E80000BF0C4F91A2344EC443019200BF0BEF9BE
:102E9000192344EC443014200BF0B8F90124142316
:102EA00044EC44300FF058FB4FF050435B681B017B
:102EB00011D504220849094B0C701A700FF020FE3E
:102EC0000028FBD00648FDF791FEBDE810404FF406
:102ED0007A700CF063B910BD864200208742002052
:102EE000CC1002102DE9F04786B00CF057FADFF84D
:102EF0000883B44ED8F804900546D9F800300F4640
:102F0000D3F80CA0B04CB24540F0158103238DF8E6
:102F10001730D9F804A00CF041FA4FF0FF326FF0EF
:102F20000043001941F10001824273EB010C3CBFE8
:102F300010461946012302900391504606210DF1D7
:102F40001702009311F0C4FE10F1020F824600F048
:102F5000FC80B0F1FF3F00F08C80012840F08F80B2
:102F6000D9F804900CF01AFA4FF0FF3C6FF00042D1
:102F7000031941F100019C4572EB01003CBF63461F
:102F800011464FF0000CCDE90231484601230621DD
:102F900005AACDF800C011F0B9FE831C00F0E38053
:102FA000411C00F0EE80012840F0A7800CF0F6F9FB
:102FB000DFF848820546D8F804900F46D9F800306B
:102FC000814CD3F80CA0B24540F08D8003238DF8DE
:102FD0001730D9F804A00CF0E1F94FF0FF326FF090
:102FE0000043001941F10001824273EB010C3CBF28
:102FF00010461946012302900391504606210DF117
:103000001702009311F064FE10F1020F82463ED0C9
:10301000B0F1FF3F00F0A08001283ED1D9F8049024
:103020000CF0BCF94FF0FF3C6FF00042031941F186
:1030300000019C4572EB01003CBF634611464FF016
:10304000000CCDE9023105AA484601230621CDF83E
:1030500000C011F05BFE821C00F08C80431C00F06D
:103060009780012821D15948FDF7C0FD06B0BDE881
:10307000F08706219DF817205548FDF7E7FD5346D8
:1030800006219DF817205348FDF7E0FD68E706216B
:103090009DF817205048FDF7D9FD534606219DF8AD
:1030A00017204C48FDF7D2FDB8E700900123062118
:1030B0004A489DF81720FDF7C9FD0CF06FF9002371
:1030C000474A401B61EB070182428B4167D30A20CC
:1030D0000CF064F8D8F80490D9F80030D3F80CA0BC
:1030E000B2453FF473AF0123484600930322062103
:1030F00005ABD0470028E0D0B5E7009001230621BA
:1031000036489DF81720FDF7A1FD0CF047F9002384
:10311000334A401B61EB070182428B414BD30A20AB
:103120000CF03CF8D8F80490D9F80030D3F80CA093
:10313000B2453FF4EBAE012348460093032206213B
:1031400005ABD0470028E0D030E706219DF81720D6
:103150002148FDF77BFD92E706219DF817201C48CA
:10316000FDF774FD99E706219DF817201D48FDF72E
:103170006DFDCAE706219DF817201A48FDF766FD88
:103180009BE706219DF817201748FDF75FFDBCE778
:1031900006219DF817201448FDF758FD8DE71348C8
:1031A000FEF758F80122124B08481A70FDF71EFD71
:1031B00006B0BDE8F0870F48FEF74CF801220C4B33
:1031C0001A70F3E6050D001040420F00FC100210CB
:1031D00018080210BC080210A0070210780A02109A
:1031E0009F8601005C090210D40902102011021010
:1031F0008E42002054110210484100204442002019
:103200002DE9F04F89B0D04804AFFDF7EFFC7023F3
:10321000CE4C0C22042120460093FEF7E5FD002849
:1032200000F0178300236268BB721368C84EDD6824
:103230009146B54240F0818313233B7355680CF0EF
:10324000ADF84FF0FF3C6FF00042C24BC01841F1A7
:103250000001844572EB01033CBF11466046012327
:10326000CDE9020107F10C0228466A21009311F012
:103270002FFD821C054600F0F682431C00F082837D
:10328000012840F0F582D9F804500CF087F8B14BD2
:103290006FF00042C0184FF0FF3341F1000183424C
:1032A00072EB01033CBF4FF0FF30114602902846FD
:1032B000002507F10A0803910095012342466A217F
:1032C00011F024FD0546A81C00F0C883691C00F01D
:1032D0001584012D40F02683BB7A606843F0020319
:1032E000BB720268DFF874B2916859450D4640F030
:1032F0004F837B7313233B73D2F80090964B994511
:1033000040F07083D0F804900CF048F84FF0FF3C88
:103310006FF000428F4BC01841F10001844572EB01
:1033200001033CBF114660460023CDE9020107F1CD
:103330000C020093484602236A2111F0C9FC821C4A
:1033400000F01C84431C00F06D84022840F097823A
:103350000023D4F80490FB72D9F80030D3F80CA005
:10336000B24540F0488315233B73D9F804301D461D
:103370000CF014F84FF0FF3C6FF00042754BC01892
:1033800041F10001844572EB01033CBF11466046E8
:103390000123CDE90201009328466A2107F10C02BE
:1033A00011F096FC03460233054600F0A382034663
:1033B000013300F04083012840F0A182D9F8049045
:1033C0000BF0ECFF4FF0FF3C6FF00042614BC01878
:1033D00041F1000107F10B0384457B6072EB0103AF
:1033E0003CBF604611460023CDE9020100934846E8
:1033F00001236A217A6811F089FC10F1020F8446DA
:1034000000F0C183B0F1FF3F00F01184012840F0CB
:103410006582FB7A606823F0070343F00403FB72C4
:103420000268D2F80890D94540F00B837B731523CE
:103430003B73D2F800A0484B9A4540F06583D0F822
:1034400004A00BF0ABFF4FF0FF3C6FF00042414B8C
:10345000C01841F10001844572EB01033CBF1146E5
:1034600060460023CDE9020100936A215046022301
:1034700007F10C0211F02CFC811C00F04E83421C61
:1034800000F0FD83022840F032830023D4F804903A
:10349000BB72D9F80030D3F80CA0B24540F0978247
:1034A00010233B73D9F804A00BF078FF4FF0FF3CDA
:1034B0006FF00042274BC01841F10001844572EBC8
:1034C00001033CBF114660460123CDE9020107F12B
:1034D0000C0250466A21009311F0FAFB10F1020F22
:1034E000824600F01382B0F1FF3F00F09182012884
:1034F00040F01182D9F804900BF050FF4FF0FF3CE0
:103500006FF00042134BC01841F10001844572EB8B
:1035100001033CBF604611460023CDE90201009340
:103520004846012342466A2111F0F0FB10F1020FD8
:10353000844600F01D83B0F1FF3F00F0678301284F
:1035400040F030820CE000BF88110210682E00208D
:10355000050D001040420F007D0C00107D11001081
:10356000BB7A606843F00203BB720268D2F808902D
:10357000D94540F053827B7310233B73D2F80090FF
:10358000C84B994540F09F82D0F804900BF006FF9D
:103590004FF0FF3C6FF00042C34BC01841F10001F7
:1035A000844572EB01033CBF114660460023CDE920
:1035B00002010093484602236A2107F10C0211F030
:1035C00087FB831C00F03F83451C00F053830228D7
:1035D00040F066820023D4F80490FB72D9F80030E2
:1035E000D3F80C80B04540F0778217233B73D9F8AD
:1035F00004800BF0D3FE4FF0FF3C6FF00042AA4B6B
:10360000C01841F10001844572EB01033CBF114633
:1036100060460123CDE9020107F10C0240466A2110
:10362000009311F055FB10F1020F804600F09E81CF
:10363000B0F1FF3F00F08982012840F09C81D9F869
:1036400004800BF0ABFE4FF0FF3C6FF00042964B56
:10365000C01841F10001844572EB01033CBF604694
:1036600011460023CDE902010093404601236A215F
:103670007A6811F04BFB10F1020F844600F0E882EB
:10368000B0F1FF3F00F0F082012840F01082FB7A99
:10369000606803F01F0343F04003FB720268D2F836
:1036A0000880D84540F057827B7317233B73D2F8CC
:1036B00000907C4B994540F0AF82D0F804900BF01D
:1036C0006DFE4FF0FF3C6FF00042774BC01841F1A8
:1036D0000001844572EB01033CBF114660460023A4
:1036E000CDE9020100936A214846022307F10C024A
:1036F00011F0EEFA811C00F0CC82421C00F0D38263
:10370000022840F053820023D4F80480FB72D8F8DA
:103710000030D3F80C90B14540F0B7810D233B73D6
:10372000D8F804600BF03AFE4FF0FF3C6FF0004217
:103730005D4BC01841F10001844572EB01033CBFB1
:10374000114660460123CDE90201009330466A210B
:1037500007F10C0211F0BCFA831C064600F0FA8057
:10376000451C00F0DF81012840F0F980D8F80460A2
:103770000BF014FE4FF0FF3C6FF000424A4BC018B4
:1037800041F10001844572EB01033CBF60461146E4
:1037900002903046002603917A68012300966A2140
:1037A00011F0B4FA0646B01C00F04782711C00F01C
:1037B0005582012E40F05881FB7A606823F00303A4
:1037C00043F00103FB72026896685E4540F0B081E9
:1037D0000D217B733973334B16689E4240F0E081B4
:1037E00046680BF0DBFD304B6FF00042C0184FF025
:1037F000FF3341F10001834272EB01033CBF4FF004
:10380000FF30114602903046002607F10C0203916A
:1038100002236A21009611F05BFA821C00F03482C8
:10382000431C00F03B82022840F0B3811F4B002272
:10383000C3E88F2F1E48FDF7BBF91E4B1E4A1F48D9
:10384000DA60A3611C61FDF7D1F91437BD46BDE80C
:10385000F08F1B48FDF7FEFC01221A4B1A7014373B
:10386000BD46BDE8F08F6A213A7B1748FDF7EEF9B7
:103870002B466A213A7B1548FDF7E8F903E5034634
:1038800002226A211248FDF7E1F91248FDF7E2FC35
:103890001148FDF7DFFC01220A4B14371A70BD46B0
:1038A000BDE8F08F7D0C001040420F00842E0020F8
:1038B00064130210883C0020F90300108C130210DE
:1038C000A01102108E420020A0070210BC080210B6
:1038D00030070210E81102106C1202103A7B01232B
:1038E0006A21B648CDF800C0FDF7B0F9B448FDF73D
:1038F000B1FCCDE76A213A7BB248FDF7A7F92B4628
:103900006A213A7BB048FDF7A1F957E56A213A7B75
:10391000AC48FDF79BF953466A213A7BAA48FDF76C
:1039200095F9E7E53A7B01236A21A4480095FDF764
:103930008DF9A648FDF78EFCAAE7012307F10A08D6
:1039400010460093132243466A21A84700287FF4BB
:10395000C3ACEEE76A213A7B9A48FDF777F9334624
:103960006A213A7B9848FDF771F9FFE66A213A7BB4
:103970009448FDF76BF943466A213A7B9248FDF77C
:1039800065F95CE66A213A7B9148FDF75FF96FE7DC
:103990000123132200936A214346A84700287FF49D
:1039A000D7AC72E73A7B01236A218448CDF800C086
:1039B000FDF74CF98748FDF74DFC8748FDF74AFCB9
:1039C0000122864B14371A70BD46BDE8F08F0123E3
:1039D00048460093102243466A21D04700287FF4CE
:1039E000BFADE7E702236A2107F10C02C8470028B0
:1039F0007FF4AEAC49E70123009307F10B0348467F
:103A000015226A217B60D04700287FF402AD6DE764
:103A10006A213A7B6E48FDF719F97CE7012243469B
:103A200000926A211022C84700287FF4D3AD6C4869
:103A3000FDF710FCC1E76A213A7B6548FDF706F9FE
:103A40005DE70123009315226A217B68C84700289F
:103A50007FF41BAD6348FDF7FDFB19E76A213A7B54
:103A60006148FDF7F3F864E73A7B01236A21534884
:103A70000096FDF7EBF85D48FDF7ECFB5C48FDF7C1
:103A8000E9FB0122554B1A70E9E6012300934046F9
:103A90000D226A217B68C84700287FF48DAEEAE7D3
:103AA000034602226A215348FDF7D0F8BFE73A7B6C
:103AB00001236A214148CDF800C0FDF7C7F84E4800
:103AC000FDF7C8FB79E702236A2107F10C02C8471A
:103AD00000287FF47FADAAE7012300934846172210
:103AE0006A217B68C04700287FF4D1ADE7E7034631
:103AF00002226A213F48FDF7A9F8ABE76A213A7B29
:103B00003E48FDF7A3F814E702236A2107F10C02EF
:103B1000D04700287FF4B9AC9CE76A213848FDF70C
:103B200095F897E76A213A7B2948FDF78FF816E761
:103B300001257B680D226A210095B04700287FF49B
:103B400075AE3048FDF786FB98E76A213A7B20483E
:103B5000FDF77CF80FE70123009317226A217B68A9
:103B6000C04700287FF4CFAD2748FDF773FB24E75B
:103B70006A213A7B1C48FDF769F81BE76A21204857
:103B8000FDF764F881E66A213A7B1748FDF75EF895
:103B9000ACE6034602226A211648FDF757F8D0E743
:103BA00002236A2107F10C02B047C7E7034602224D
:103BB0006A211048FDF74AF8D6E700BF780A0210DC
:103BC00014120210A0070210BC080210BC1102104F
:103BD00018080210300F0210E41202108E4200206A
:103BE0005C0F0210401202105C0902100413021054
:103BF000AC1302103007021088120210D409021010
:103C00009806021034130210B41202106A213A7B93
:103C10002748FDF71BF8CDE602236A2107F10C02C5
:103C2000C8479EE76A212348FDF710F82DE66A2170
:103C30003A7B1F48FDF70AF858E66A213A7B1E488E
:103C4000FDF704F817E76A211C48FCF7FFFFEEE6D2
:103C50006A213A7B1848FCF7F9FF30E76A213A7B82
:103C60001348FCF7F3FF06E76A213A7B1048FCF79C
:103C7000EDFF24E76A210F48FCF7E8FFD7E66A2149
:103C80000C48FCF7E3FFE5E66A210C48FCF7DEFF91
:103C900057E76A210948FCF7D9FF65E76A2105481B
:103CA000FCF7D4FF4DE76A210248FCF7CFFF5BE742
:103CB000D4090210DC0602105C09021098060210FA
:103CC0002DE9F04FC848ADB0FCF790FFC74B1B780B
:103CD000002B40F088840023DFF82CA3DAF80C20B6
:103CE000CAF814308AF818306AB10122DAF80800EC
:103CF000DAF8041000F110039A404B681340FCD12D
:103D0000043041F8203000224CF250334FF0FF10C5
:103D1000CAF81420B64A0A21CAE90A320122B54C6F
:103D2000CAF81C10CAE90304DAF80800DAF804102B
:103D300000F110039A404B681340FCD199464FF0B4
:103D4000FF230124043041F820308AF819400BF099
:103D500025FB8AF818404C46CAE908010BF01EFB07
:103D6000DAE908329AF81950C31A61EB0202002D01
:103D700000F0BD81DAF828509D4274EB020280F217
:103D8000EB81DAF81C30CAE90801002B40F0F88317
:103D900000238AF818300BF001FB0C900E910BF009
:103DA000FDFA9FED8F7B88468DED1E7B8DED207B90
:103DB0008DED227B8DED247B8DED1C7B8DED1A7BB3
:103DC0008D4FDFF848B20A900BF0E8FA00230C9A06
:103DD000801A0E9A61EB0201874273EB0101C0F079
:103DE0009782DBF81830002B00F0BC81834BD3E8BE
:103DF0008F3FDBB253B90BF0D1FA0A9BC01A61EBCB
:103E00000801B0F5166F71F10001DDD30BF0C6FAB1
:103E1000DBF80440884623680A90DD68784B9D42B1
:103E200040F05F821E238DF89F3065680BF0B6FA74
:103E30004FF0FF326FF00043724E801941F10001E4
:103E4000824273EB01063CBF104619460123CDE9BF
:103E50000201009328466A210DF19F0210F038FFFD
:103E6000831C054600F01182461C00F05583012892
:103E700040F0118264680BF091FA4FF0FF326FF05E
:103E80000043604D401941F10001824273EB01058E
:103E90003CBF104619460023CDE90201009320469D
:103EA00010236A2128AA10F031FF841C00F05A83E5
:103EB000411C00F08A83102840F00782DBF818309C
:103EC0001BB14E4B0022C3E88F2F4FF47F0200231B
:103ED0009BED047BCAE904234CF2503301228DEDA3
:103EE000147B9BED027BBDF8A410CAF8283010911A
:103EF000BDF8A6103E4B1391BDF8A810CAF82C309F
:103F0000DAF80C301991BDF8AE10FF2B8DED167B51
:103F1000BDF8AA50BDF8AC401891CAF81C200FD0CB
:103F2000DAE90110FF23CAF80C3000F110039A40BF
:103F30004B681342FCD14FF47F43043041F82030EA
:103F400001268AF819600BF029FACAE908018AF8F3
:103F500018600BF023FADAE908329AF819C0C31A8C
:103F600061EB0202BCF1000F00F05681DAF8286024
:103F70009E424FF0000373EB02022CDADAF81C3099
:103F8000CAE90801002B00F09C814FF000038AF879
:103F900019309AF815309AF817201B0443EA026387
:103FA0009AF8162013439AF8142043EA0222DAF80A
:103FB0000C309A420FD0DAE9010C01210CF1100308
:103FC000CAF80C209940120243680B42FCD10CF154
:103FD000040C40F82C209AF81830002BB9D117E0C7
:103FE0000000000000000000CC13021096420020E8
:103FF000A086010000FFFF003F4B4C00842E0020F4
:10400000050D001040420F00B82B0020682E002044
:1040100028B20BF0B5FDDDE916562A4633460BF003
:10402000F1FC02460B46DDE91A010BF0C3FC024627
:104030000B4620B2CDE91A230BF0A2FD2A463346E7
:104040000BF0E0FC02460B46DDE91C010BF0B2FC74
:1040500002460B46BDF96000CDE91C230BF090FD34
:104060002A4633460BF0CEFC02460B46DDE924011E
:104070000BF0A0FC02460B46BDF94000CDE924231D
:104080000BF07EFDDDE9144522462B460BF0BAFC11
:1040900002460B46DDE922010BF08CFC02460B4682
:1040A000BDF94C00CDE922230BF06AFD22462B46D8
:1040B0000BF0A8FC02460B46DDE920010BF07AFC70
:1040C00002460B46BDF96400CDE920230BF058FDF4
:1040D00022462B460BF096FC02460B46DDE91E01FC
:1040E0000BF068FC09F10109CDE91E016CE6DAF874
:1040F0002C609E4295412FDADAF81C30CAE908019B
:10410000002BC4BF03F1FF33CAF81C30002B3FF46F
:104110003FAE01219AF811309AF813201B0443EAAC
:1041200002639AF812208AF8191013439AF81020A3
:1041300043EA0222DAF80C309A420DD0DAE901059E
:1041400005F11003CAF80C209940120243680B4293
:10415000FCD1043540F825209AF81830002B7FF464
:10416000FDAD18E6DBF804408DF89F302368DD686C
:10417000614B9D4240F0E3811E238DF8A0306568BD
:104180000BF00CF94FF0FF326FF000435B4E8019DB
:1041900041F10001824273EB01063CBF1046194613
:1041A0000123CDE90201009328466A2128AA10F0D4
:1041B0008FFD831C054676D0461C00F0CC8101287B
:1041C00077D164680BF0EAF84FF0FF326FF00043EC
:1041D0004A4D401941F10001824273EB01053CBF99
:1041E000104619460023CDE9020100932046012321
:1041F0006A210DF19F0210F089FD841C00F0EC8112
:10420000411C00F01882012840F08D819DF89F30FC
:104210009A077FF4FBADEEE5DAF82C609E427CEB6A
:104220000202BFF6D8AEDAF81C30CAE90801002B4A
:10423000C4BF03F1FF33CAF81C30002B41D0012268
:104240009AF811309AF813101B0443EA01639AF8A4
:1042500012108AF819200B439AF8101043EA012132
:10426000DAF80C3099423FF4B6AEDAE9010C0CF101
:104270001003CAF80C109A40090243681342FCD19B
:104280000CF1040C40F82C10A5E66A219DF89F2043
:104290001B48FCF7DBFC2B466A219DF89F20194840
:1042A000FCF7D4FCE6E56A219DF8A0201448FCF751
:1042B000CDFC2B466A219DF8A0201248FCF7C6FCD5
:1042C0007FE700238AF81830A2E6009010236A21C5
:1042D0009DF89F200C48FCF7B9FC0C48FCF7BAFF8E
:1042E00072E51023204600931E226A2128ABA847BE
:1042F00000287FF4E3ADF0E7050D001040420F0009
:10430000A0070210BC080210780A02104C0D02101F
:104310008AF818304FF47F03CAF81430DAF80C30FA
:10432000FF2B10D0DAE90110FF230122CAF80C306C
:1043300000F110039A404B681342FCD14FF47F43C5
:10434000043041F82030B9F1000F00F053814846A5
:104350000BF028FC04460D46DDE91A0122462B46E7
:104360000BF074FB02460B46DDE91C01CDE90C2382
:1043700022462B460BF06AFB02460B46DDE9240180
:1043800016461F4622462B46CDE910670BF05EFB12
:104390009DED0C7BDFF8F48202460B46DDE922013D
:1043A00088ED007B47EC176BCDE90E2388ED027B8F
:1043B00022462B460BF04AFB02460B46DDE9200164
:1043C000CDE90A2322462B460BF040FB22462B4622
:1043D00006460F46DDE91E010BF038FBA9A3D3E921
:1043E000002304460D46DDE90E019DED0A7BC8E978
:1043F000086788ED067BC8E90A450BF069FC0028D0
:1044000040F0B780DDE90E010022934B0BF0D2FAA9
:10441000DDE90C239DED0A7B8DED047B9DED107B8A
:10442000CDE902018DED007BCDE90845CDE90667B8
:10443000C8E904010120494688F830008748FCF7A4
:10444000D5FB874B1B78002B40F0FF8080A3D3E97E
:104450000023C8E90E23EFF3108572B6814C216862
:10446000C1F580001CF0C8F8D4E901212068C0F52E
:1044700080001CF075F885F31088D4E90012A0685C
:10448000C1F182511BF0D8F8754B1B78002B40F01E
:10449000D9804FF47F410022DAF80C30CAF81410AA
:1044A000B3F57F0F8AF8182011D0DAE901104FF424
:1044B0007F03012200F11004A240CAF80C304B68BF
:1044C0001342FCD14FF07F43043041F8203066485E
:1044D000FCF78CFB624B1B78002B40F088804FF47C
:1044E000FA700AF05BFE0023DAF80C20CAF81430E8
:1044F0008AF818306AB1DAE901100122CAF80C30E2
:1045000000F110039A404B681340FCD1043041F88D
:1045100020302DB0BDE8F08F6A219DF89F205348D0
:10452000FCF794FBB7E6009001236A219DF8A020D8
:104530004F48FCF78BFB4F48FCF78CFE5BE40123F4
:10454000204600931E226A210DF19F03A8470028F0
:104550007FF45CAEEFE76A219DF8A0204348FCF7AA
:1045600075FBA6E66A219DF89F204348FCF76EFB89
:10457000B3E60022DDE90E01374B0BF02FFA47E7D7
:104580009AF815309AF817201B0443EA02639AF848
:1045900016208AF8194013439AF8142043EA02229D
:1045A000DAF80C309A423FF4D7ADDAE9010501217F
:1045B00005F11003CAF80C209940120243680B421F
:1045C000FCD1043540F82520C6E56A219DF89F20DE
:1045D0002A48FCF73BFB80E66A219DF8A02026488C
:1045E000FCF734FBA7E710F0D5FDFFF774BB10F024
:1045F00003FE74E72248FCF72DFEFF22DAF80C30A8
:10460000CAF81420B3F57F4F8AF818903FF462AFD0
:10461000DAE901104FF47F43012200F11004A240B7
:10462000CAF80C304B681342FCD14FF47F030430BE
:1046300041F820304EE76A219DF8A0200F48FCF792
:1046400005FB78E710F0D8FD23E710F0A3FDFDE6A9
:1046500007B9E332D1FBE9AC0000F03FE0130210F0
:1046600096420020D8410020481402101808021079
:10467000780A0210780D02105C090210D4090210A9
:1046800064140210555555555555D53F702C0020D2
:104690002DE9F04FAC4887B0FCF7A8FA0122AB4DEA
:1046A000D5E90134196802FA04F421EA0401D5E9D4
:1046B000036019601968B24021EA02021A60421CC4
:1046C00001D009F0C7FD4FF0FF32002305202A6119
:1046D0002B750AF015FF07EE100A9FED9D6AB8EEE4
:1046E000477ADFED9C6AC7EE067A77EEA67ABCEED3
:1046F000E77A17EE101A89B26A68AB68002900F0F1
:10470000668107EE101AB8EE477ADFED936A77EE0E
:10471000C77A67EEA67AFCEEE77ACDED037A9DF8CC
:104720000C0000024FF0010C4FF4E13E4FF0FF3758
:1047300040EA014003EB430102EBC101C1F8C800AC
:10474000E96803F1040801EB410402EBC404C4F876
:10475000C800081D02F500590CFA00F00CFA08F820
:10476000C9F80080C9F8000010680CFA03F303438D
:1047700013601368794C0CFA01F123EA010313600A
:1047800004F15406C5F81CE085F814C06568286972
:10479000431C02D009F05EFD2F61A0680C3409F0C3
:1047A00059FDA642F2D16E4C65682869411C04D0BF
:1047B00009F050FD4FF0FF332B61A06809F04AFD6E
:1047C00025692869421C04D009F044FD4FF0FF33ED
:1047D0002B616069634C09F03DFD65682869431CE5
:1047E00004D009F037FD4FF0FF332B61A06809F0CA
:1047F00031FD14234FF0010242EC403064200AF0F6
:10480000CDFC4FF00C0B4FF0000A574E574C584F51
:10481000DFF8908106F10809002356F8045B397827
:10482000C4E9015BC4E90333002900F0BD801D2DFC
:1048300000F2D980284648F8254009F0E7FC4AEC08
:104840004450012228460C2109F09AFCB14504F19C
:104850001404E1D10AF0A2FD464C07464FF4FA7267
:10486000884645486168FCF7A3F9444D8126636892
:104870000721434A04A800960DF04CFC2B68EFF387
:10488000108272B6D3E8CF0F01210028FAD1C3E815
:10489000401F0028F6D1BFF35F8F206804A903688A
:1048A0004FF000095B686A60984720680722036838
:1048B00004A99B6898472B68C3E88F9F6B6883F3B4
:1048C00010880138032862681FD811462D48FCF76C
:1048D0006FF92D4A0521636804A80DF01BFC2068C0
:1048E00004A903685B68984720680522036804A947
:1048F0009B68984701286CD02448FCF7ABFC012248
:10490000234B1A7007B0BDE8F08F31462148FCF701
:10491000A1FC05200AF042FC0AF040FD1E4BC01B22
:1049200061EB0801834279EB01019FD261681B486A
:10493000FCF790FC1A48FCF78DFC0122144B1A700E
:1049400007B0BDE8F08F00BF98140210EC410020C2
:10495000000061490000003B000080430C3800204B
:10496000A441002030250020FC3902107C410020A9
:1049700085420020282500204C1502103C300020E4
:1049800090150210D81502100C1602108416021091
:104990008E4200209C1502101FA107001416021061
:1049A00050160210C42F002011480391FCF700F9A3
:1049B000782203990F481AF033FB0F4809F006FCE0
:1049C0000121152009F056FD01233B702FE7084611
:1049D000A8E69DF81030412B8ED10848FCF706F967
:1049E00007B0BDE8F08F2946054809F053FC00BF29
:1049F000B4140210C42F0020A9050010A416021040
:104A0000001502102DE9F04F2DED028B4FF000083C
:104A10009FEDBB8ADFEDBB8A044689B0BA4EDFF852
:104A20001CB3BA4D02919BF8143056F804AF9BB1F9
:104A3000DBF81C309A4568D0DBE9013001221968A7
:104A400002FA00F021EA0001DBF80C701960196825
:104A5000BA4021EA02021A6005200AF051FD4FEA2D
:104A6000CA0306EE900A07EE103AF8EE666AB8EE50
:104A7000C77AC6EE877A77EE887ABCEEE77A17EEC9
:104A8000101A88B2DBF80420DBF80830002800F0A8
:104A9000328107EE100AB8EE477A77EEC77A67EEF2
:104AA000A87AFCEEE77ACDED037A9DF80C100902A6
:104AB00041EA00410120DBF80C7003EB430E02EBEE
:104AC000CE0ECEF8C81007EB470E02EBCE0ECEF896
:104AD000C81003F10409391D02F5005E00FA01F166
:104AE00000FA09F9CEF80090CEF8001000FA07F1AC
:104AF000176800FA03F33B431360136823EA0103CA
:104B00001360CBF81CA08BF814000AF047FC4FF49C
:104B1000FA7281460F467E486168FCF749F80396B1
:104B20008126636807217B4A05A800960DF0F2FAFA
:104B30002B68EFF3108272B6D3E8CF0F0121002863
:104B4000FAD1C3E8401F0028F6D1BFF35F8F206879
:104B500005A903685B686A609847206807220368B4
:104B600005A99B6898472B68C3E88F8F6B6883F310
:104B7000108801380328626800F29B80114666485D
:104B8000029FFCF715F8BAF1FF3F00F0AE809BF8EA
:104B900014309BB1DBF81C309A4569D0DBE9013059
:104BA0000122196802FA00F021EA0001DBF80C503A
:104BB00019601968AA4021EA02021A6005200AF069
:104BC0009FFC4FEACA0307EE103ADBE9012306EE29
:104BD000900AB8EEC77AF8EE666A9FED496AC6EEAB
:104BE000877A77EE867ABCEEE77A17EE101A89B2EA
:104BF000002900F0828007EE101AB8EE477ADFED48
:104C0000416A77EEC77A67EEA67AFCEEE77ACDEDD9
:104C1000027A9DF808000002012540EA014003EBFA
:104C20004306DBF80C1002EBC606C6F8C80001EB21
:104C3000410602EBC606C6F8C8001E1D081D02F597
:104C4000005C05FA00F005FA06F6CCF80060CCF836
:104C50000000106805FA03F303431360136805FAB4
:104C600001F123EA01031360CBF81CA08BF8145068
:104C700080253B78294A019363680B2105A800959C
:104C80000DF048FA206805A903685B68984720681A
:104C900005A903680B229B689847012861684FD0DB
:104CA0001F48FCF7D7FA1F4809B0BDEC028BBDE8DE
:104CB000F08F31461C48FCF7CDFA05200AF06EFA59
:104CC0000AF06CFB194BB0EB090061EB0701834262
:104CD00078EB0101BFF424AF61681548039EFCF72F
:104CE000B9FA144BB3427FF49EAE134809B0BDEC41
:104CF000028BBDE8F08F0146DAE608468CE700BF7C
:104D00000000003B00008043443802103C3000208B
:104D10004C15021090150210D81502105C170210E5
:104D20006C170210E81602109C1502101FA1070054
:104D30001416021050380210C8160210EC41002060
:104D40009DF81430412BABD1822297F901500B46CC
:104D500000920B21684A019505A80DF0DBF9206847
:104D600005A903685B689847206805A903680B22BA
:104D70009B6898470128616808D06048FCF76AFA88
:104D80005F4809B0BDEC028BBDE8F08F9DF8143090
:104D9000412BF2D12A465B48FBF70AFF5A4A05210C
:104DA000636805A80DF0B6F9206805A903685B687B
:104DB000984720680522036805A99B689847012841
:104DC00005D0524809B0BDEC028BBDE8F08F9DF8CC
:104DD0001430412BF5D14FF4FA700AF0DFF94C4A48
:104DE0000521636805A80DF095F9206805A90368F9
:104DF0005B68984720680522036805A99B68984767
:104E0000012801D0434871E79DF81430412BF9D1B6
:104E10009BF81430A3B1DBF81C30B3F5165F66D0F5
:104E2000DBE901300122196802FA00F021EA0001F1
:104E3000DBF80C4019601968A24021EA02021A60EE
:104E400005200AF05DFB07EE100A9FED336AB8EE0D
:104E5000477ADFED326AC7EE067A77EEA67ABCEEC5
:104E6000E77A17EE103A98B2DBF80410DBF8082066
:104E700000283ED007EE100AB8EE477ADFED286A28
:104E800077EEC77A67EEA67AFCEEE77ACDED027A86
:104E90009DF808301B0201244FF4165543EA0043E5
:104EA00002EB420001EBC000C0F8C830DBF80C0098
:104EB00001F5005700EB400601EBC606C6F8C83006
:104EC000161D031D04FA03F304FA06F63E603B6068
:104ED00004FA02F30A6804FA00F013430B600B684B
:104EE00023EA00030B60CBF81C508BF81440002021
:104EF000FCE60346CFE700BF5C170210A4170210C0
:104F000000170210E41702101C18021020170210DC
:104F10000C16021040170210000096470000003BDC
:104F200000008043802370B50D46044686B0009390
:104F30002B78884A01930B21636803A80DF0EAF8E7
:104F4000206803A903685B689847206803A9036881
:104F50000B229B6898470128616805D07E48FCF7C2
:104F600079F97E4806B070BD9DF80C30412BF5D123
:104F7000822295F901600B4600920B21754A019639
:104F800003A80DF0C7F8206803A903685B68984779
:104F9000206803A903680B229B6898470128616871
:104FA00005D06F48FCF756F96E4806B070BD9DF805
:104FB0000C30412BF5D132466B48FBF7F9FDB020A0
:104FC0006B68644ACDE900030B21636803A80DF008
:104FD000A1F8206803A903685B68984720680B2242
:104FE000036803A99B689847012802D05F4806B070
:104FF00070BD9DF80C30412BF8D1B726EB68554AAF
:10500000019363680B2103A800960DF083F82068D4
:1050100003A903685B68984720680B22036803A90B
:105020009B689847012802D0514806B070BD9DF892
:105030000C30412BF8D1B826AB68464A019363681F
:105040000B2103A800960DF065F8206803A90368FA
:105050005B68984720680B22036803A99B68984700
:10506000012801D043487DE79DF80C30412BF9D150
:10507000BA262B7C374A019363680B2103A800965C
:105080000DF048F8206803A903685B68984720681A
:105090000B22036803A99B689847012801D0364872
:1050A00060E79DF80C30412BF9D1BC266B69294A89
:1050B000019363680B2103A800960DF02BF820687C
:1050C00003A903685B68984720680B22036803A95B
:1050D0009B689847012801D0284843E79DF80C3089
:1050E000412BF9D1BD26AA6963680B21019203A85F
:1050F000184A00960DF00EF8206803A903685B6853
:10510000984720680B22036803A99B6898470128E9
:1051100001D01B4826E79DF80C30412BF9D1194AE4
:105120000521636803A80CF0F5FF206803A9036854
:105130005B68984720680522036803A99B68984725
:10514000012801D010480DE79DF80C30412BF9D112
:10515000002007E75C1702106C170210E816021017
:10516000A417021000170210E417021024180210EE
:10517000401802105C1802107818021098180210DB
:10518000C01802101C1802102017021000000000A6
:105190002DE9F047994888B0FBF728FD0122984C8B
:1051A000D4E90135196802FA05F521EA0501D4E9C7
:1051B000036019601968B24021EA02021A60421CB9
:1051C00001D009F047F84FF0FF320023052022619B
:1051D00023750AF095F907EE100A9FED8A6AB8EE7A
:1051E000477ADFED896AC7EE067A77EEA67ABCEEDB
:1051F000E77A17EE101A89B26268A368002900F0F6
:105200009C8107EE101AB8EE477ADFED806A77EEE0
:10521000C77A67EEA67AFCEEE77ACDED037A9DF8C1
:105220000C00000201264FF4165740EA014003EB40
:10523000430102EBC101C1F8C800E16803F1040CAD
:1052400001EB410502EBC505C5F8C8000D1D02F5CF
:10525000005E06FA0CFC06FA05F5CEF800C0CEF8A2
:105260000050156806FA03F32B431360136806FA1F
:1052700001F123EA010313606548E76126754FF0E9
:105280000007FBF7B3FC142347EC40304FF4FA70EF
:1052900009F084FF4FF0FF395E4C04F15408656853
:1052A0002869431C03D008F0D5FFC5F81090A0680A
:1052B00008F0ACFFA36847EC403046EC44300C34B7
:1052C0004445ECD1DFF884814FF0FF3A44464FF07B
:1052D00000094FF0010708F1180665682869411CAC
:1052E00000F01A8108F0B6FFC5F810A0A06808F019
:1052F0008DFFA36849EC403047EC44300C34B44295
:10530000EBD1454C65682869421C04D008F0A2FF27
:105310004FF0FF332B61A06808F078FF4FF00002D8
:10532000A36842EC40304FF0010444EC4430642068
:1053300009F034FF142344EC40304FF4FA7009F0C4
:105340002DFF3648FBF752FC00244FF00109344F83
:10535000344E354D31463846FFF7E4FD024628B15C
:1053600021463248FBF776FF85F800900134072C80
:1053700007F1080706F11C06ECD12D48FBF736FCB7
:1053800000272C4D2C4C80262B782C4A0193236827
:105390000B2105A800960CF0BDFE54F8040C05A9DD
:1053A00003685B68984754F8040C05A903680B224E
:1053B0009B6898470128216800F08E802048FBF701
:1053C00049FF204A39462048FBF744FF0122164B8B
:1053D0001A70D8F804603069431C39D008F03AFFDD
:1053E0004FF0FF333361D8F8080008F033FFAFBB4C
:1053F0000127083508F10C080834C4E70419021025
:10540000EC410020000096470000003B0000804374
:105410001C1902100C380020302500203C19021005
:10542000D4370020383902108E4200206019021053
:105430009019021028390210704100205C170210E8
:105440006C170210E8160210B0190210A4410020D7
:10545000D8F8080008F0FEFE002FC9D06048FBF71E
:10546000C5FB60496048FFF7CDFA014628B15F48A7
:10547000FBF7F0FE01225E4B1A7001225D4D5E4C7F
:105480002B7884F83120002B7CD153A3D3E900235F
:10549000C4E90E23EFF3108672B6584C2168C1F5AB
:1054A00080001BF0A9F8D4E90002A168C0F58000D3
:1054B0001BF056F886F31088D4E90012A068C1F1F9
:1054C00082511AF0B9F82B78002B53D14C48FBF7D6
:1054D0008DFB08B0BDE8F0879DF81430412B7FF4B8
:1054E0006DAFB12200926A680B4601920B21454ACA
:1054F00005A80CF00FFE54F8040C05A903685B68BE
:10550000984754F8040C0B22036805A99B68984738
:10551000012814D03C4A55E7A06808F077FE4FF008
:105520000002A36842EC40304FF0010242EC4430EC
:105530000C34B4427FF4D1AEE3E6084672E69DF83F
:105540001430412BE6D1314A0521236805A80CF01F
:10555000E1FD54F8040C05A903685B68984754F80A
:10556000040C0522036805A99B68984701280CD004
:10557000274A27E70FF040FE2148FBF737FB08B02A
:10558000BDE8F0870FF006FE7FE79DF81430412B51
:10559000EED14FF4FA7009F001FE1E4A052123688E
:1055A00005A80CF0B7FD54F8040C05A903685B6866
:1055B000984754F8040C0522036805A99B6898478E
:1055C000012801D0144AFDE69DF81430412BF9D191
:1055D000FFE600BFAFF3008007B9E332D1FBE9ACCF
:1055E000DC190210043A021028250020F8190210D4
:1055F0008E42002096420020702C0020D8410020CE
:10560000201A02105C170210E81802101C18021071
:10561000201702100C1602104017021000000000A4
:105620002DE9F04F05468FB02946BC48FBF7DEFA5E
:105630000023BB4CE2686361237662B1D4E90110B8
:105640000122E36000F110039A404B681340FCD143
:10565000043041F82030012D00F28C83B14A05EB73
:10566000850302EB83025068AB001D280892099362
:1056700005D8AD4E56F820309A4200F09A85AB4AD4
:1056800005EB450302EB83035E686B000793337DF4
:1056900093B1F369B3F5165F65D0D6E90120012314
:1056A000116803FA00F021EA0001F768116011683F
:1056B000BB4021EA03031360052009F021FFD6E96E
:1056C000012307EE100A9FED9A6AB8EE477ADFEDE4
:1056D000996AC7EE067A77EEA67ABCEEE77A17EEFD
:1056E000101A89B2002900F0E68407EE101AB8EE0D
:1056F000477ADFED916A77EEC77A67EEA67AFCEE1D
:10570000E77ACDED027A9DF808703F0201204FF450
:10571000165847EA014703EB430CF16802EBCC0C47
:10572000CCF8C87001EB410C02EBCC0CCCF8C87083
:1057300003F1040C0F1D02F5005E00FA07F700FAF2
:105740000CFCCEF800C0CEF80070176800FA03F326
:105750003B431360136800FA01F123EA010313606D
:10576000C6F81C80307514234FF0000242EC403024
:105770004FF4FA7009F012FD6C4A6B002B4402EBF7
:1057800083035E683069431C04D008F063FD4FF06A
:10579000FF3333616B005E19644B03EB8606B06820
:1057A00008F034FD4FF00002B36842EC40304FF097
:1057B000010747EC4430642009F0F0FC142347EC67
:1057C00040304FF4FA7009F0E9FC76683069471C04
:1057D00004D008F03FFD4FF0FF333361534A6B00B4
:1057E0002B4402EB8303986808F034FD09F0D6FDE2
:1057F0008B468246514F4FF4FA7207EBC50350486F
:105800005968CDF80CB0CDF808A0AB46FBF7D0F93D
:105810004C4E4FEAC509812507EB0908D8F804303A
:105820000721494A0BA800950CF074FC3368EFF38C
:10583000108272B6D3E8CF0F01210028FAD1C3E855
:10584000401F0028F6D1BFF35F8F57F83B0072600E
:1058500003680BA95B68984757F83B000722036869
:105860000BA99B6898474FF0000A3368C3E88FAFD5
:10587000736883F3108801380328D8F8042000F2F5
:105880003B8111463148FBF793F94CF250330A2221
:10589000A3622F4B5D46E3622E4BC4F814A0236134
:1058A000E368E261B3F1FF1F10D0D4E901104FF0BB
:1058B000FF130122E36000F110039A404B6813428A
:1058C000FCD14FF0FF23043041F820304FF00108A5
:1058D00084F8198009F062FDAA4684F818804FF018
:1058E0000008C4E9080109F059FDD4E9083294F828
:1058F00019C0C31A61EB0202BCF1000F00F0CA81AB
:10590000A56A9D4278EB020280F2F381E369C4E963
:105910000801002B40F030841EE000BF401A021046
:10592000B82B00207C410020C42F0020A44100207F
:10593000000096470000003B000080436C410020BF
:105940004C1502103C30002090150210D8150210A2
:10595000A086010000FFFF0000235546237609F0D2
:105960001DFD4FF0FF3200239346CDE90413039051
:1059700006934FF0000ACDF808B009F00FFD039B25
:10598000C01A049B61EB0301B44B83427AEB010123
:10599000C0F0FC814FF0010807EB090BDBF8043085
:1059A0000721AF4A0BA8CDF800800CF0B3FB336899
:1059B000EFF3108272B6D3E8CF0F01210028FAD19D
:1059C000C3E8401F0028F6D1BFF35F8F57F83500BA
:1059D000726003680BA95B68984757F83500072287
:1059E00003680BA99B6898473368C3E88FAF736857
:1059F00083F310880138032800F2B58100211022BA
:105A00000BA8DDF808B018F019FE4FF47F034CF234
:105A100050312361934BC4F814A0C4E90A13E3681E
:105A20008246FF2BC4F81C8010D0D4E90121FF234B
:105A3000E36001F1100308FA03F8536813EA080F52
:105A4000FBD14FF47F43043142F821304FF001087D
:105A500084F8198009F0A2FC84F818804FF000083F
:105A6000C4E90801029509F099FCD4E9083294F8D8
:105A700019C0C31A61EB0202BCF1000F00F03F81B4
:105A8000A56A9D4278EB020225DAE369C4E90801C0
:105A9000002B00F06481637DE27D1B0443EA026316
:105AA000A27D84F819801343227D43EA0222E36831
:105AB0009A4210D0D4E9010C01210CF11003029D8F
:105AC000E2609940120243680B42FCD10CF1040CD5
:105AD000029540F82C20237E002BC4D1029D059B0B
